S00B00004432392E737265636A
S11300000C942A000C9462000C9447000C94470052
S11300100C9447000C9447000C9447000C94470040
S11300200C9447000C9447000C9447000C94E40093
S11300300C9447000C9447000C9447000C94470020
S11300400C9447000C9447000C9447000C94470010
S11300500C94470011241FBECFE5D8E0DEBFCDBF0E
S113006010E0A0E6B0E0E6EAF2E002C005900D92EE
S1130070A036B107D9F720E0A0E6B0E001C01D9298
S1130080AB36B207E1F70E9450000C9451010C9476
S1130090000084B3806884BB85B3806885BB089501
S11300A00E94890068EE73E080E090E00E94960070
S11300B00E94D50089E490E00E94DF0085B38F7729
S11300C085BBF8CF1F920F920FB60F9211242F9376
S11300D03F934F935F936F937F938F939F93AF93CC
S11300E0BF93EF93FF93E0916900F0916A00099543
S11300F0FF91EF91BF91AF919F918F917F916F91FC
S11301005F914F913F912F910F900FBE0F901F90D1
S1130110189583B7877F83BF83B78F7B83BF89B7E6
S1130120816089BF8FB780688FBF08950F931F9335
S11301309B01AC01A8EEB3E00E9446018B019C0137
S1130140689415F836952795179507951694D1F761
S1130150DC01CB01072E7EE0B695A7959795879590
S11301607A95D1F7702D8093650090936600A093E3
S11301706700B09368000023A9F0019502BF809145
S1130180650090916600A0916700B09168000196A7
S1130190A11DB11D8093650090936600A093670034
S11301A0B09368001F910F91089583B7816083BF56
S11301B083B78D7F83BF83B7846083BF0895909393
S11301C06A008093690008951F920F920FB60F92F0
S11301D011242F933F934F935F936F937F938F9348
S11301E09F93AF93BF93EF93FF938091600090919F
S11301F06100A0916200B09163000196A11DB11D40
S11302008093600090936100A0936200B0936300B8
S1130210409165005091660060916700709168009C
S113022084179507A607B70789F4E0916900F09150
S11302306A000995109260001092610010926200A9
S11302401092630080916400819582BFFF91EF91C9
S1130250BF91AF919F918F917F916F915F914F91DA
S11302603F912F910F900FBE0F901F901895A29F52
S1130270B001B39FC001A39F700D811D1124911D76
S1130280B29F700D811D1124911D08950E943701A4
S1130290A59F900DB49F900DA49F800D911D1124D6
S10902A00895F894FFCF5D
S9030000FC
